{
  "contractName": "Kudzu",
  "abi": [
    {
      "inputs": [
        {
          "internalType": "contract Metadata",
          "name": "_metadata",
          "type": "address"
        }
      ],
      "stateMutability": "nonpayable",
      "type": "constructor"
    },
    {
      "anonymous": false,
      "inputs": [
        {
          "indexed": true,
          "internalType": "address",
          "name": "owner",
          "type": "address"
        },
        {
          "indexed": true,
          "internalType": "address",
          "name": "approved",
          "type": "address"
        },
        {
          "indexed": true,
          "internalType": "uint256",
          "name": "tokenId",
          "type": "uint256"
        }
      ],
      "name": "Approval",
      "type": "event"
    },
    {
      "anonymous": false,
      "inputs": [
        {
          "indexed": true,
          "internalType": "address",
          "name": "owner",
          "type": "address"
        },
        {
          "indexed": true,
          "internalType": "address",
          "name": "operator",
          "type": "address"
        },
        {
          "indexed": false,
          "internalType": "bool",
          "name": "approved",
          "type": "bool"
        }
      ],
      "name": "ApprovalForAll",
      "type": "event"
    },
    {
      "anonymous": false,
      "inputs": [
        {
          "indexed": true,
          "internalType": "address",
          "name": "previousOwner",
          "type": "address"
        },
        {
          "indexed": true,
          "internalType": "address",
          "name": "newOwner",
          "type": "address"
        }
      ],
      "name": "OwnershipTransferred",
      "type": "event"
    },
    {
      "anonymous": false,
      "inputs": [
        {
          "indexed": true,
          "internalType": "address",
          "name": "from",
          "type": "address"
        },
        {
          "indexed": true,
          "internalType": "address",
          "name": "to",
          "type": "address"
        },
        {
          "indexed": true,
          "internalType": "uint256",
          "name": "tokenId",
          "type": "uint256"
        }
      ],
      "name": "Transfer",
      "type": "event"
    },
    {
      "inputs": [
        {
          "internalType": "address",
          "name": "to",
          "type": "address"
        },
        {
          "internalType": "uint256",
          "name": "tokenId",
          "type": "uint256"
        }
      ],
      "name": "approve",
      "outputs": [],
      "stateMutability": "nonpayable",
      "type": "function"
    },
    {
      "inputs": [
        {
          "internalType": "address",
          "name": "owner",
          "type": "address"
        }
      ],
      "name": "balanceOf",
      "outputs": [
        {
          "internalType": "uint256",
          "name": "",
          "type": "uint256"
        }
      ],
      "stateMutability": "view",
      "type": "function",
      "constant": true
    },
    {
      "inputs": [],
      "name": "baseURI",
      "outputs": [
        {
          "internalType": "string",
          "name": "",
          "type": "string"
        }
      ],
      "stateMutability": "view",
      "type": "function",
      "constant": true
    },
    {
      "inputs": [
        {
          "internalType": "uint256",
          "name": "tokenId",
          "type": "uint256"
        }
      ],
      "name": "getApproved",
      "outputs": [
        {
          "internalType": "address",
          "name": "",
          "type": "address"
        }
      ],
      "stateMutability": "view",
      "type": "function",
      "constant": true
    },
    {
      "inputs": [
        {
          "internalType": "address",
          "name": "owner",
          "type": "address"
        },
        {
          "internalType": "address",
          "name": "operator",
          "type": "address"
        }
      ],
      "name": "isApprovedForAll",
      "outputs": [
        {
          "internalType": "bool",
          "name": "",
          "type": "bool"
        }
      ],
      "stateMutability": "view",
      "type": "function",
      "constant": true
    },
    {
      "inputs": [],
      "name": "metadata",
      "outputs": [
        {
          "internalType": "contract Metadata",
          "name": "",
          "type": "address"
        }
      ],
      "stateMutability": "view",
      "type": "function",
      "constant": true
    },
    {
      "inputs": [],
      "name": "name",
      "outputs": [
        {
          "internalType": "string",
          "name": "",
          "type": "string"
        }
      ],
      "stateMutability": "view",
      "type": "function",
      "constant": true
    },
    {
      "inputs": [],
      "name": "owner",
      "outputs": [
        {
          "internalType": "address",
          "name": "",
          "type": "address"
        }
      ],
      "stateMutability": "view",
      "type": "function",
      "constant": true
    },
    {
      "inputs": [
        {
          "internalType": "uint256",
          "name": "tokenId",
          "type": "uint256"
        }
      ],
      "name": "ownerOf",
      "outputs": [
        {
          "internalType": "address",
          "name": "",
          "type": "address"
        }
      ],
      "stateMutability": "view",
      "type": "function",
      "constant": true
    },
    {
      "inputs": [],
      "name": "renounceOwnership",
      "outputs": [],
      "stateMutability": "nonpayable",
      "type": "function"
    },
    {
      "inputs": [
        {
          "internalType": "address",
          "name": "operator",
          "type": "address"
        },
        {
          "internalType": "bool",
          "name": "approved",
          "type": "bool"
        }
      ],
      "name": "setApprovalForAll",
      "outputs": [],
      "stateMutability": "nonpayable",
      "type": "function"
    },
    {
      "inputs": [
        {
          "internalType": "bytes4",
          "name": "interfaceId",
          "type": "bytes4"
        }
      ],
      "name": "supportsInterface",
      "outputs": [
        {
          "internalType": "bool",
          "name": "",
          "type": "bool"
        }
      ],
      "stateMutability": "view",
      "type": "function",
      "constant": true
    },
    {
      "inputs": [],
      "name": "symbol",
      "outputs": [
        {
          "internalType": "string",
          "name": "",
          "type": "string"
        }
      ],
      "stateMutability": "view",
      "type": "function",
      "constant": true
    },
    {
      "inputs": [
        {
          "internalType": "uint256",
          "name": "index",
          "type": "uint256"
        }
      ],
      "name": "tokenByIndex",
      "outputs": [
        {
          "internalType": "uint256",
          "name": "",
          "type": "uint256"
        }
      ],
      "stateMutability": "view",
      "type": "function",
      "constant": true
    },
    {
      "inputs": [
        {
          "internalType": "address",
          "name": "owner",
          "type": "address"
        },
        {
          "internalType": "uint256",
          "name": "index",
          "type": "uint256"
        }
      ],
      "name": "tokenOfOwnerByIndex",
      "outputs": [
        {
          "internalType": "uint256",
          "name": "",
          "type": "uint256"
        }
      ],
      "stateMutability": "view",
      "type": "function",
      "constant": true
    },
    {
      "inputs": [
        {
          "internalType": "uint256",
          "name": "tokenId",
          "type": "uint256"
        }
      ],
      "name": "tokenURI",
      "outputs": [
        {
          "internalType": "string",
          "name": "",
          "type": "string"
        }
      ],
      "stateMutability": "view",
      "type": "function",
      "constant": true
    },
    {
      "inputs": [],
      "name": "totalSupply",
      "outputs": [
        {
          "internalType": "uint256",
          "name": "",
          "type": "uint256"
        }
      ],
      "stateMutability": "view",
      "type": "function",
      "constant": true
    },
    {
      "inputs": [
        {
          "internalType": "address",
          "name": "newOwner",
          "type": "address"
        }
      ],
      "name": "transferOwnership",
      "outputs": [],
      "stateMutability": "nonpayable",
      "type": "function"
    },
    {
      "inputs": [
        {
          "internalType": "contract Metadata",
          "name": "_metadata",
          "type": "address"
        }
      ],
      "name": "updateMetadata",
      "outputs": [],
      "stateMutability": "nonpayable",
      "type": "function"
    },
    {
      "inputs": [
        {
          "internalType": "address",
          "name": "from",
          "type": "address"
        },
        {
          "internalType": "address",
          "name": "to",
          "type": "address"
        },
        {
          "internalType": "uint256",
          "name": "parentId",
          "type": "uint256"
        }
      ],
      "name": "transferFrom",
      "outputs": [],
      "stateMutability": "nonpayable",
      "type": "function"
    },
    {
      "inputs": [
        {
          "internalType": "address",
          "name": "from",
          "type": "address"
        },
        {
          "internalType": "address",
          "name": "to",
          "type": "address"
        },
        {
          "internalType": "uint256",
          "name": "tokenId",
          "type": "uint256"
        }
      ],
      "name": "safeTransferFrom",
      "outputs": [],
      "stateMutability": "nonpayable",
      "type": "function"
    },
    {
      "inputs": [
        {
          "internalType": "address",
          "name": "from",
          "type": "address"
        },
        {
          "internalType": "address",
          "name": "to",
          "type": "address"
        },
        {
          "internalType": "uint256",
          "name": "tokenId",
          "type": "uint256"
        },
        {
          "internalType": "bytes",
          "name": "_data",
          "type": "bytes"
        }
      ],
      "name": "safeTransferFrom",
      "outputs": [],
      "stateMutability": "nonpayable",
      "type": "function"
    }
  ],
  "bytecode": "0x60806040523480156200001157600080fd5b506040516200246038038062002460833981810160405260208110156200003757600080fd5b5051604080518082018252600a815269466f6c6961566972757360b01b6020828101919091528251808401909352600383526223262b60e91b9083015290620000906301ffc9a760e01b6001600160e01b03620001d416565b8151620000a590600690602085019062000592565b508051620000bb90600790602084019062000592565b50620000d76380ac58cd60e01b6001600160e01b03620001d416565b620000f2635b5e139f60e01b6001600160e01b03620001d416565b6200010d63780e9d6360e01b6001600160e01b03620001d416565b5060009050620001256001600160e01b036200025916565b600a80546001600160a01b0319166001600160a01b038316908117909155604051919250906000907f8be0079c531659141344cd1fd0a4f28419497f9722a3daafe3b4186f6b6457e0908290a350600b80546001600160a01b0319166001600160a01b0383161790556101006200019d60206200025e565b1760081b620001b660206001600160e01b036200025e16565b17620001cc33826001600160e01b036200029b16565b505062000634565b6001600160e01b0319808216141562000234576040805162461bcd60e51b815260206004820152601c60248201527f4552433136353a20696e76616c696420696e7465726661636520696400000000604482015290519081900360640190fd5b6001600160e01b0319166000908152602081905260409020805460ff19166001179055565b335b90565b60408051446020808301919091524282840152825180830384018152606090920190925280519101206000908290816200029457fe5b0692915050565b6001600160a01b038216620002f7576040805162461bcd60e51b815260206004820181905260248201527f4552433732313a206d696e7420746f20746865207a65726f2061646472657373604482015290519081900360640190fd5b6200030b816001600160e01b036200040116565b156200035e576040805162461bcd60e51b815260206004820152601c60248201527f4552433732313a20746f6b656e20616c7265616479206d696e74656400000000604482015290519081900360640190fd5b62000375600083836001600160e01b036200042416565b6001600160a01b0382166000908152600160209081526040909120620003a69183906200154762000429821b17901c565b50620003c4818360026200044760201b62001553179092919060201c565b5060405181906001600160a01b038416906000907fddf252ad1be2c89b69c2b068fc378daa952ba7f163c4a11628f55a4df523b3ef908290a45050565b60006200041e8260026200047060201b620015801790919060201c565b92915050565b505050565b60006200044083836001600160e01b036200048716565b9392505050565b60006200046884846001600160a01b0385166001600160e01b03620004df16565b949350505050565b60006200044083836001600160e01b036200057a16565b60006200049e83836001600160e01b036200057a16565b620004d6575081546001818101845560008481526020808220909301849055845484825282860190935260409020919091556200041e565b5060006200041e565b6000828152600184016020526040812054806200054657505060408051808201825283815260208082018481528654600181810189556000898152848120955160029093029095019182559151908201558654868452818801909252929091205562000440565b828560000160018303815481106200055a57fe5b906000526020600020906002020160010181905550600091505062000440565b60009081526001919091016020526040902054151590565b828054600181600116156101000203166002900490600052602060002090601f016020900481019282601f10620005d557805160ff191683800117855562000605565b8280016001018555821562000605579182015b8281111562000605578251825591602001919060010190620005e8565b506200061392915062000617565b5090565b6200025b91905b808211156200061357600081556001016200061e565b611e1c80620006446000396000f3fe608060405234801561001057600080fd5b50600436106101825760003560e01c80636c0360eb116100d8578063a22cb4651161008c578063c87b56dd11610066578063c87b56dd14610587578063e985e9c5146105a4578063f2fde38b146105df57610182565b8063a22cb46514610446578063b88d4fde14610481578063c5e2a7db1461055457610182565b8063715018a6116100bd578063715018a61461042e5780638da5cb5b1461043657806395d89b411461043e57610182565b80636c0360eb146103f357806370a08231146103fb57610182565b806323b872dd1161013a57806342842e0e1161011457806342842e0e146103765780634f6ccce7146103b95780636352211e146103d657610182565b806323b872dd146102f25780632f745c5914610335578063392f37e91461036e57610182565b8063081812fc1161016b578063081812fc14610257578063095ea7b31461029d57806318160ddd146102d857610182565b806301ffc9a71461018757806306fdde03146101da575b600080fd5b6101c66004803603602081101561019d57600080fd5b50357fffffffff0000000000000000000000000000000000000000000000000000000016610612565b604080519115158252519081900360200190f35b6101e261064d565b6040805160208082528351818301528351919283929083019185019080838360005b8381101561021c578181015183820152602001610204565b50505050905090810190601f1680156102495780820380516001836020036101000a031916815260200191505b509250505060405180910390f35b6102746004803603602081101561026d57600080fd5b5035610701565b6040805173ffffffffffffffffffffffffffffffffffffffff9092168252519081900360200190f35b6102d6600480360360408110156102b357600080fd5b5073ffffffffffffffffffffffffffffffffffffffff813516906020013561078a565b005b6102e06108cd565b60408051918252519081900360200190f35b6102d66004803603606081101561030857600080fd5b5073ffffffffffffffffffffffffffffffffffffffff8135811691602081013590911690604001356108de565b6102e06004803603604081101561034b57600080fd5b5073ffffffffffffffffffffffffffffffffffffffff8135169060200135610a2a565b610274610a68565b6102d66004803603606081101561038c57600080fd5b5073ffffffffffffffffffffffffffffffffffffffff8135811691602081013590911690604001356108c8565b6102e0600480360360208110156103cf57600080fd5b5035610a84565b610274600480360360208110156103ec57600080fd5b5035610aa0565b6101e2610ace565b6102e06004803603602081101561041157600080fd5b503573ffffffffffffffffffffffffffffffffffffffff16610b4d565b6102d6610be9565b610274610d00565b6101e2610d1c565b6102d66004803603604081101561045c57600080fd5b5073ffffffffffffffffffffffffffffffffffffffff81351690602001351515610d9b565b6102d66004803603608081101561049757600080fd5b73ffffffffffffffffffffffffffffffffffffffff8235811692602081013590911691604082013591908101906080810160608201356401000000008111156104df57600080fd5b8201836020820111156104f157600080fd5b8035906020019184600183028401116401000000008311171561051357600080fd5b91908080601f016020809104026020016040519081016040528093929190818152602001838380828437600092019190915250929550610a24945050505050565b6102d66004803603602081101561056a57600080fd5b503573ffffffffffffffffffffffffffffffffffffffff16610f0c565b6101e26004803603602081101561059d57600080fd5b5035610ffb565b6101c6600480360360408110156105ba57600080fd5b5073ffffffffffffffffffffffffffffffffffffffff8135811691602001351661136a565b6102d6600480360360208110156105f557600080fd5b503573ffffffffffffffffffffffffffffffffffffffff166113a5565b7fffffffff00000000000000000000000000000000000000000000000000000000811660009081526020819052604090205460ff165b919050565b60068054604080516020601f60027fffffffffffffffffffffffffffffffffffffffffffffffffffffffffffffffff6101006001881615020190951694909404938401819004810282018101909252828152606093909290918301828280156106f75780601f106106cc576101008083540402835291602001916106f7565b820191906000526020600020905b8154815290600101906020018083116106da57829003601f168201915b5050505050905090565b600061070c8261158c565b610761576040517f08c379a000000000000000000000000000000000000000000000000000000000815260040180806020018281038252602c815260200180611d6b602c913960400191505060405180910390fd5b5060009081526004602052604090205473ffffffffffffffffffffffffffffffffffffffff1690565b600061079582610aa0565b90508073ffffffffffffffffffffffffffffffffffffffff168373ffffffffffffffffffffffffffffffffffffffff16141561081c576040517f08c379a0000000000000000000000000000000000000000000000000000000008152600401808060200182810382526021815260200180611dc66021913960400191505060405180910390fd5b8073ffffffffffffffffffffffffffffffffffffffff1661083b61159f565b73ffffffffffffffffffffffffffffffffffffffff16148061086957506108698161086461159f565b61136a565b6108be576040517f08c379a0000000000000000000000000000000000000000000000000000000008152600401808060200182810382526038815260200180611cbe6038913960400191505060405180910390fd5b6108c883836115a3565b505050565b60006108d96002611643565b905090565b6108e783610b4d565b60011461095557604080517f08c379a000000000000000000000000000000000000000000000000000000000815260206004820152601060248201527f4e4f542059455420494e46454354454400000000000000000000000000000000604482015290519081900360640190fd5b61095e82610b4d565b156109ca57604080517f08c379a000000000000000000000000000000000000000000000000000000000815260206004820152601060248201527f414c524541445920494e46454354454400000000000000000000000000000000604482015290519081900360640190fd5b60006109d46108cd565b60010160041b90506109e6600261164e565b610a065760ff600483901c161760081b610a00602061164e565b17610a1a565b610a10602061164e565b1760081b60ff8216175b610a24838261168a565b50505050565b73ffffffffffffffffffffffffffffffffffffffff82166000908152600160205260408120610a5f908363ffffffff61181f16565b90505b92915050565b600b5473ffffffffffffffffffffffffffffffffffffffff1681565b600080610a9860028463ffffffff61182b16565b509392505050565b6000610a6282604051806060016040528060298152602001611d20602991396002919063ffffffff61184716565b60098054604080516020601f60027fffffffffffffffffffffffffffffffffffffffffffffffffffffffffffffffff6101006001881615020190951694909404938401819004810282018101909252828152606093909290918301828280156106f75780601f106106cc576101008083540402835291602001916106f7565b600073ffffffffffffffffffffffffffffffffffffffff8216610bbb576040517f08c379a000000000000000000000000000000000000000000000000000000000815260040180806020018281038252602a815260200180611cf6602a913960400191505060405180910390fd5b73ffffffffffffffffffffffffffffffffffffffff82166000908152600160205260409020610a6290611643565b610bf161159f565b73ffffffffffffffffffffffffffffffffffffffff16610c0f610d00565b73ffffffffffffffffffffffffffffffffffffffff1614610c9157604080517f08c379a000000000000000000000000000000000000000000000000000000000815260206004820181905260248201527f4f776e61626c653a2063616c6c6572206973206e6f7420746865206f776e6572604482015290519081900360640190fd5b600a5460405160009173ffffffffffffffffffffffffffffffffffffffff16907f8be0079c531659141344cd1fd0a4f28419497f9722a3daafe3b4186f6b6457e0908390a3600a80547fffffffffffffffffffffffff0000000000000000000000000000000000000000169055565b600a5473ffffffffffffffffffffffffffffffffffffffff1690565b60078054604080516020601f60027fffffffffffffffffffffffffffffffffffffffffffffffffffffffffffffffff6101006001881615020190951694909404938401819004810282018101909252828152606093909290918301828280156106f75780601f106106cc576101008083540402835291602001916106f7565b610da361159f565b73ffffffffffffffffffffffffffffffffffffffff168273ffffffffffffffffffffffffffffffffffffffff161415610e3d57604080517f08c379a000000000000000000000000000000000000000000000000000000000815260206004820152601960248201527f4552433732313a20617070726f766520746f2063616c6c657200000000000000604482015290519081900360640190fd5b8060056000610e4a61159f565b73ffffffffffffffffffffffffffffffffffffffff90811682526020808301939093526040918201600090812091871680825291909352912080547fffffffffffffffffffffffffffffffffffffffffffffffffffffffffffffff001692151592909217909155610eb961159f565b604080518415158152905173ffffffffffffffffffffffffffffffffffffffff92909216917f17307eab39ab6107e8899845ad3d59bd9653f200f220920489ca2b5937696c319181900360200190a35050565b610f1461159f565b73ffffffffffffffffffffffffffffffffffffffff16610f32610d00565b73ffffffffffffffffffffffffffffffffffffffff1614610fb457604080517f08c379a000000000000000000000000000000000000000000000000000000000815260206004820181905260248201527f4f776e61626c653a2063616c6c6572206973206e6f7420746865206f776e6572604482015290519081900360640190fd5b600b80547fffffffffffffffffffffffff00000000000000000000000000000000000000001673ffffffffffffffffffffffffffffffffffffffff92909216919091179055565b60606110068261158c565b61105b576040517f08c379a000000000000000000000000000000000000000000000000000000000815260040180806020018281038252602f815260200180611d97602f913960400191505060405180910390fd5b60008281526008602090815260409182902080548351601f60027fffffffffffffffffffffffffffffffffffffffffffffffffffffffffffffffff61010060018616150201909316929092049182018490048402810184019094528084526060939283018282801561110e5780601f106110e35761010080835404028352916020019161110e565b820191906000526020600020905b8154815290600101906020018083116110f157829003601f168201915b50505050509050606061111f610ace565b905080516000141561113357509050610648565b81511561124e5780826040516020018083805190602001908083835b6020831061118c57805182527fffffffffffffffffffffffffffffffffffffffffffffffffffffffffffffffe0909201916020918201910161114f565b51815160209384036101000a7fffffffffffffffffffffffffffffffffffffffffffffffffffffffffffffffff018019909216911617905285519190930192850191508083835b6020831061121057805182527fffffffffffffffffffffffffffffffffffffffffffffffffffffffffffffffe090920191602091820191016111d3565b6001836020036101000a0380198251168184511680821785525050505050509050019250505060405160208183030381529060405292505050610648565b8061125885611854565b6040516020018083805190602001908083835b602083106112a857805182527fffffffffffffffffffffffffffffffffffffffffffffffffffffffffffffffe0909201916020918201910161126b565b51815160209384036101000a7fffffffffffffffffffffffffffffffffffffffffffffffffffffffffffffffff018019909216911617905285519190930192850191508083835b6020831061132c57805182527fffffffffffffffffffffffffffffffffffffffffffffffffffffffffffffffe090920191602091820191016112ef565b6001836020036101000a0380198251168184511680821785525050505050509050019250505060405160208183030381529060405292505050919050565b73ffffffffffffffffffffffffffffffffffffffff918216600090815260056020908152604080832093909416825291909152205460ff1690565b6113ad61159f565b73ffffffffffffffffffffffffffffffffffffffff166113cb610d00565b73ffffffffffffffffffffffffffffffffffffffff161461144d57604080517f08c379a000000000000000000000000000000000000000000000000000000000815260206004820181905260248201527f4f776e61626c653a2063616c6c6572206973206e6f7420746865206f776e6572604482015290519081900360640190fd5b73ffffffffffffffffffffffffffffffffffffffff81166114b9576040517f08c379a0000000000000000000000000000000000000000000000000000000008152600401808060200182810382526026815260200180611c986026913960400191505060405180910390fd5b600a5460405173ffffffffffffffffffffffffffffffffffffffff8084169216907f8be0079c531659141344cd1fd0a4f28419497f9722a3daafe3b4186f6b6457e090600090a3600a80547fffffffffffffffffffffffff00000000000000000000000000000000000000001673ffffffffffffffffffffffffffffffffffffffff92909216919091179055565b6000610a5f8383611981565b6000611576848473ffffffffffffffffffffffffffffffffffffffff85166119cb565b90505b9392505050565b6000610a5f8383611a62565b6000610a6260028363ffffffff61158016565b3390565b600081815260046020526040902080547fffffffffffffffffffffffff00000000000000000000000000000000000000001673ffffffffffffffffffffffffffffffffffffffff841690811790915581906115fd82610aa0565b73ffffffffffffffffffffffffffffffffffffffff167f8c5be1e5ebec7d5bd14f71427d1e84f3dd0314c0f7b2291e5b200ac8c7c3b92560405160405180910390a45050565b6000610a6282611a7a565b604080514460208083019190915242828401528251808303840181526060909201909252805191012060009082908161168357fe5b0692915050565b73ffffffffffffffffffffffffffffffffffffffff821661170c57604080517f08c379a000000000000000000000000000000000000000000000000000000000815260206004820181905260248201527f4552433732313a206d696e7420746f20746865207a65726f2061646472657373604482015290519081900360640190fd5b6117158161158c565b1561178157604080517f08c379a000000000000000000000000000000000000000000000000000000000815260206004820152601c60248201527f4552433732313a20746f6b656e20616c7265616479206d696e74656400000000604482015290519081900360640190fd5b61178d600083836108c8565b73ffffffffffffffffffffffffffffffffffffffff821660009081526001602052604090206117c2908263ffffffff61154716565b506117d56002828463ffffffff61155316565b50604051819073ffffffffffffffffffffffffffffffffffffffff8416906000907fddf252ad1be2c89b69c2b068fc378daa952ba7f163c4a11628f55a4df523b3ef908290a45050565b6000610a5f8383611a7e565b600080808061183a8686611afc565b9097909650945050505050565b6000611576848484611b91565b606081611895575060408051808201909152600181527f30000000000000000000000000000000000000000000000000000000000000006020820152610648565b8160005b81156118ad57600101600a82049150611899565b60608167ffffffffffffffff811180156118c657600080fd5b506040519080825280601f01601f1916602001820160405280156118f1576020820181803683370190505b5085935090507fffffffffffffffffffffffffffffffffffffffffffffffffffffffffffffffff82015b831561197857600a840660300160f81b8282806001900393508151811061193e57fe5b60200101907effffffffffffffffffffffffffffffffffffffffffffffffffffffffffffff1916908160001a905350600a8404935061191b565b50949350505050565b600061198d8383611a62565b6119c357508154600181810184556000848152602080822090930184905584548482528286019093526040902091909155610a62565b506000610a62565b600082815260018401602052604081205480611a30575050604080518082018252838152602080820184815286546001818101895560008981528481209551600290930290950191825591519082015586548684528188019092529290912055611579565b82856000016001830381548110611a4357fe5b9060005260206000209060020201600101819055506000915050611579565b60009081526001919091016020526040902054151590565b5490565b81546000908210611ada576040517f08c379a0000000000000000000000000000000000000000000000000000000008152600401808060200182810382526022815260200180611c766022913960400191505060405180910390fd5b826000018281548110611ae957fe5b9060005260206000200154905092915050565b815460009081908310611b5a576040517f08c379a0000000000000000000000000000000000000000000000000000000008152600401808060200182810382526022815260200180611d496022913960400191505060405180910390fd5b6000846000018481548110611b6b57fe5b906000526020600020906002020190508060000154816001015492509250509250929050565b60008281526001840160205260408120548281611c46576040517f08c379a00000000000000000000000000000000000000000000000000000000081526004018080602001828103825283818151815260200191508051906020019080838360005b83811015611c0b578181015183820152602001611bf3565b50505050905090810190601f168015611c385780820380516001836020036101000a031916815260200191505b509250505060405180910390fd5b50846000016001820381548110611c5957fe5b906000526020600020906002020160010154915050939250505056fe456e756d657261626c655365743a20696e646578206f7574206f6620626f756e64734f776e61626c653a206e6577206f776e657220697320746865207a65726f20616464726573734552433732313a20617070726f76652063616c6c6572206973206e6f74206f776e6572206e6f7220617070726f76656420666f7220616c6c4552433732313a2062616c616e636520717565727920666f7220746865207a65726f20616464726573734552433732313a206f776e657220717565727920666f72206e6f6e6578697374656e7420746f6b656e456e756d657261626c654d61703a20696e646578206f7574206f6620626f756e64734552433732313a20617070726f76656420717565727920666f72206e6f6e6578697374656e7420746f6b656e4552433732314d657461646174613a2055524920717565727920666f72206e6f6e6578697374656e7420746f6b656e4552433732313a20617070726f76616c20746f2063757272656e74206f776e6572a264697066735822122043a8135b43549f4b3cf3021cbcbb21cb9b9d8f2501257a319bf4f834543e9e3c64736f6c63430006080033",
  "source": "pragma solidity ^0.6.8;\n\nimport \"@openzeppelin/contracts/token/ERC721/ERC721.sol\";\nimport \"@openzeppelin/contracts/access/Ownable.sol\";\nimport \"./Metadata.sol\";\n\n/**\n * The FoliaVirus contract does this and that and doesn't stop.\n */\n\ncontract Kudzu is ERC721, Ownable {\n    Metadata public metadata;\n    constructor(Metadata _metadata) public ERC721(\"FoliaVirus\", \"FLV\") {\n        metadata = _metadata;\n        uint256 tokenId = 1;\n\n        tokenId = tokenId << 8;\n        tokenId = tokenId | pseudoRNG(32);\n\n        tokenId = tokenId << 8;\n        tokenId = tokenId | pseudoRNG(32);\n\n        _mint(msg.sender, tokenId);\n    }\n    function updateMetadata(Metadata _metadata) public onlyOwner {\n        metadata = _metadata;\n    }\n    function transferFrom(address from, address to, uint256 parentId) public virtual override {\n        require(balanceOf(from) == 1, \"NOT YET INFECTED\");\n        require(balanceOf(to) == 0, \"ALREADY INFECTED\");\n        uint256 tokenId = totalSupply() + 1;\n        tokenId = tokenId << 4;\n        if (pseudoRNG(2) == 0) {\n            //inherit eyes\n            tokenId = tokenId | (parentId >> 4 & 0xFF);\n            tokenId = tokenId << 8;\n            tokenId = tokenId | pseudoRNG(32);\n        } else {\n            //inherit mouth\n            tokenId = tokenId | pseudoRNG(32);\n            tokenId = tokenId << 8;\n            tokenId = tokenId | (parentId & 0xFF);\n        }\n        _mint(to, tokenId);\n    }\n    function safeTransferFrom(address from, address to, uint256 tokenId) public virtual override {}\n    function safeTransferFrom(address from, address to, uint256 tokenId, bytes memory _data) public virtual override {}\n    function pseudoRNG(uint modulo) private view returns (uint256) {\n        return uint256(keccak256(abi.encodePacked(block.difficulty, now))) % modulo;\n    }\n}\n",
  "sourcePath": "/Users/billy/GitHub/folia-app/kudzu/contracts/Kudzu.sol",
  "compiler": {
    "name": "solc",
    "version": "0.6.8+commit.0bbfe453.Emscripten.clang"
  },
  "schemaVersion": "3.0.20",
  "updatedAt": "2021-04-18T10:23:11.267Z",
  "networkType": "ethereum",
  "devdoc": {
    "methods": {
      "approve(address,uint256)": {
        "details": "See {IERC721-approve}."
      },
      "balanceOf(address)": {
        "details": "See {IERC721-balanceOf}."
      },
      "baseURI()": {
        "details": "Returns the base URI set via {_setBaseURI}. This will be automatically added as a prefix in {tokenURI} to each token's URI, or to the token ID if no specific URI is set for that token ID."
      },
      "getApproved(uint256)": {
        "details": "See {IERC721-getApproved}."
      },
      "isApprovedForAll(address,address)": {
        "details": "See {IERC721-isApprovedForAll}."
      },
      "name()": {
        "details": "See {IERC721Metadata-name}."
      },
      "owner()": {
        "details": "Returns the address of the current owner."
      },
      "ownerOf(uint256)": {
        "details": "See {IERC721-ownerOf}."
      },
      "renounceOwnership()": {
        "details": "Leaves the contract without owner. It will not be possible to call `onlyOwner` functions anymore. Can only be called by the current owner.     * NOTE: Renouncing ownership will leave the contract without an owner, thereby removing any functionality that is only available to the owner."
      },
      "setApprovalForAll(address,bool)": {
        "details": "See {IERC721-setApprovalForAll}."
      },
      "supportsInterface(bytes4)": {
        "details": "See {IERC165-supportsInterface}.     * Time complexity O(1), guaranteed to always use less than 30 000 gas."
      },
      "symbol()": {
        "details": "See {IERC721Metadata-symbol}."
      },
      "tokenByIndex(uint256)": {
        "details": "See {IERC721Enumerable-tokenByIndex}."
      },
      "tokenOfOwnerByIndex(address,uint256)": {
        "details": "See {IERC721Enumerable-tokenOfOwnerByIndex}."
      },
      "tokenURI(uint256)": {
        "details": "See {IERC721Metadata-tokenURI}."
      },
      "totalSupply()": {
        "details": "See {IERC721Enumerable-totalSupply}."
      },
      "transferOwnership(address)": {
        "details": "Transfers ownership of the contract to a new account (`newOwner`). Can only be called by the current owner."
      }
    }
  },
  "userdoc": {
    "methods": {},
    "notice": "The FoliaVirus contract does this and that and doesn't stop."
  }
}