{
  "contractName": "Kudzu",
  "abi": [
    {
      "inputs": [
        {
          "internalType": "contract Metadata",
          "name": "_metadata",
          "type": "address"
        },
        {
          "internalType": "address",
          "name": "genesis",
          "type": "address"
        }
      ],
      "stateMutability": "nonpayable",
      "type": "constructor"
    },
    {
      "anonymous": false,
      "inputs": [
        {
          "indexed": true,
          "internalType": "address",
          "name": "owner",
          "type": "address"
        },
        {
          "indexed": true,
          "internalType": "address",
          "name": "approved",
          "type": "address"
        },
        {
          "indexed": true,
          "internalType": "uint256",
          "name": "tokenId",
          "type": "uint256"
        }
      ],
      "name": "Approval",
      "type": "event"
    },
    {
      "anonymous": false,
      "inputs": [
        {
          "indexed": true,
          "internalType": "address",
          "name": "owner",
          "type": "address"
        },
        {
          "indexed": true,
          "internalType": "address",
          "name": "operator",
          "type": "address"
        },
        {
          "indexed": false,
          "internalType": "bool",
          "name": "approved",
          "type": "bool"
        }
      ],
      "name": "ApprovalForAll",
      "type": "event"
    },
    {
      "anonymous": false,
      "inputs": [
        {
          "indexed": true,
          "internalType": "address",
          "name": "from",
          "type": "address"
        },
        {
          "indexed": true,
          "internalType": "address",
          "name": "to",
          "type": "address"
        },
        {
          "indexed": true,
          "internalType": "uint256",
          "name": "tokenId",
          "type": "uint256"
        }
      ],
      "name": "Infect",
      "type": "event"
    },
    {
      "anonymous": false,
      "inputs": [
        {
          "indexed": true,
          "internalType": "address",
          "name": "previousOwner",
          "type": "address"
        },
        {
          "indexed": true,
          "internalType": "address",
          "name": "newOwner",
          "type": "address"
        }
      ],
      "name": "OwnershipTransferred",
      "type": "event"
    },
    {
      "anonymous": false,
      "inputs": [
        {
          "indexed": true,
          "internalType": "address",
          "name": "from",
          "type": "address"
        },
        {
          "indexed": true,
          "internalType": "address",
          "name": "to",
          "type": "address"
        },
        {
          "indexed": true,
          "internalType": "uint256",
          "name": "tokenId",
          "type": "uint256"
        }
      ],
      "name": "Transfer",
      "type": "event"
    },
    {
      "inputs": [
        {
          "internalType": "address",
          "name": "to",
          "type": "address"
        },
        {
          "internalType": "uint256",
          "name": "tokenId",
          "type": "uint256"
        }
      ],
      "name": "approve",
      "outputs": [],
      "stateMutability": "nonpayable",
      "type": "function"
    },
    {
      "inputs": [
        {
          "internalType": "address",
          "name": "owner",
          "type": "address"
        }
      ],
      "name": "balanceOf",
      "outputs": [
        {
          "internalType": "uint256",
          "name": "",
          "type": "uint256"
        }
      ],
      "stateMutability": "view",
      "type": "function",
      "constant": true
    },
    {
      "inputs": [],
      "name": "baseURI",
      "outputs": [
        {
          "internalType": "string",
          "name": "",
          "type": "string"
        }
      ],
      "stateMutability": "view",
      "type": "function",
      "constant": true
    },
    {
      "inputs": [
        {
          "internalType": "uint256",
          "name": "tokenId",
          "type": "uint256"
        }
      ],
      "name": "getApproved",
      "outputs": [
        {
          "internalType": "address",
          "name": "",
          "type": "address"
        }
      ],
      "stateMutability": "view",
      "type": "function",
      "constant": true
    },
    {
      "inputs": [
        {
          "internalType": "address",
          "name": "owner",
          "type": "address"
        },
        {
          "internalType": "address",
          "name": "operator",
          "type": "address"
        }
      ],
      "name": "isApprovedForAll",
      "outputs": [
        {
          "internalType": "bool",
          "name": "",
          "type": "bool"
        }
      ],
      "stateMutability": "view",
      "type": "function",
      "constant": true
    },
    {
      "inputs": [],
      "name": "metadata",
      "outputs": [
        {
          "internalType": "contract Metadata",
          "name": "",
          "type": "address"
        }
      ],
      "stateMutability": "view",
      "type": "function",
      "constant": true
    },
    {
      "inputs": [],
      "name": "name",
      "outputs": [
        {
          "internalType": "string",
          "name": "",
          "type": "string"
        }
      ],
      "stateMutability": "view",
      "type": "function",
      "constant": true
    },
    {
      "inputs": [],
      "name": "owner",
      "outputs": [
        {
          "internalType": "address",
          "name": "",
          "type": "address"
        }
      ],
      "stateMutability": "view",
      "type": "function",
      "constant": true
    },
    {
      "inputs": [
        {
          "internalType": "uint256",
          "name": "tokenId",
          "type": "uint256"
        }
      ],
      "name": "ownerOf",
      "outputs": [
        {
          "internalType": "address",
          "name": "",
          "type": "address"
        }
      ],
      "stateMutability": "view",
      "type": "function",
      "constant": true
    },
    {
      "inputs": [],
      "name": "renounceOwnership",
      "outputs": [],
      "stateMutability": "nonpayable",
      "type": "function"
    },
    {
      "inputs": [
        {
          "internalType": "address",
          "name": "operator",
          "type": "address"
        },
        {
          "internalType": "bool",
          "name": "approved",
          "type": "bool"
        }
      ],
      "name": "setApprovalForAll",
      "outputs": [],
      "stateMutability": "nonpayable",
      "type": "function"
    },
    {
      "inputs": [
        {
          "internalType": "bytes4",
          "name": "interfaceId",
          "type": "bytes4"
        }
      ],
      "name": "supportsInterface",
      "outputs": [
        {
          "internalType": "bool",
          "name": "",
          "type": "bool"
        }
      ],
      "stateMutability": "view",
      "type": "function",
      "constant": true
    },
    {
      "inputs": [],
      "name": "symbol",
      "outputs": [
        {
          "internalType": "string",
          "name": "",
          "type": "string"
        }
      ],
      "stateMutability": "view",
      "type": "function",
      "constant": true
    },
    {
      "inputs": [
        {
          "internalType": "uint256",
          "name": "index",
          "type": "uint256"
        }
      ],
      "name": "tokenByIndex",
      "outputs": [
        {
          "internalType": "uint256",
          "name": "",
          "type": "uint256"
        }
      ],
      "stateMutability": "view",
      "type": "function",
      "constant": true
    },
    {
      "inputs": [
        {
          "internalType": "address",
          "name": "owner",
          "type": "address"
        },
        {
          "internalType": "uint256",
          "name": "index",
          "type": "uint256"
        }
      ],
      "name": "tokenOfOwnerByIndex",
      "outputs": [
        {
          "internalType": "uint256",
          "name": "",
          "type": "uint256"
        }
      ],
      "stateMutability": "view",
      "type": "function",
      "constant": true
    },
    {
      "inputs": [
        {
          "internalType": "uint256",
          "name": "tokenId",
          "type": "uint256"
        }
      ],
      "name": "tokenURI",
      "outputs": [
        {
          "internalType": "string",
          "name": "",
          "type": "string"
        }
      ],
      "stateMutability": "view",
      "type": "function",
      "constant": true
    },
    {
      "inputs": [],
      "name": "totalSupply",
      "outputs": [
        {
          "internalType": "uint256",
          "name": "",
          "type": "uint256"
        }
      ],
      "stateMutability": "view",
      "type": "function",
      "constant": true
    },
    {
      "inputs": [
        {
          "internalType": "address",
          "name": "newOwner",
          "type": "address"
        }
      ],
      "name": "transferOwnership",
      "outputs": [],
      "stateMutability": "nonpayable",
      "type": "function"
    },
    {
      "inputs": [
        {
          "internalType": "uint256",
          "name": "tokenId",
          "type": "uint256"
        }
      ],
      "name": "getPiecesOfTokenID",
      "outputs": [
        {
          "internalType": "uint256",
          "name": "id",
          "type": "uint256"
        },
        {
          "internalType": "uint256",
          "name": "eyes",
          "type": "uint256"
        },
        {
          "internalType": "uint256",
          "name": "mouth",
          "type": "uint256"
        }
      ],
      "stateMutability": "pure",
      "type": "function",
      "constant": true
    },
    {
      "inputs": [
        {
          "internalType": "contract Metadata",
          "name": "_metadata",
          "type": "address"
        }
      ],
      "name": "updateMetadata",
      "outputs": [],
      "stateMutability": "nonpayable",
      "type": "function"
    },
    {
      "inputs": [
        {
          "internalType": "address",
          "name": "from",
          "type": "address"
        },
        {
          "internalType": "address",
          "name": "to",
          "type": "address"
        },
        {
          "internalType": "uint256",
          "name": "tokenId",
          "type": "uint256"
        }
      ],
      "name": "transferFrom",
      "outputs": [],
      "stateMutability": "nonpayable",
      "type": "function"
    },
    {
      "inputs": [
        {
          "internalType": "address",
          "name": "from",
          "type": "address"
        },
        {
          "internalType": "address",
          "name": "to",
          "type": "address"
        },
        {
          "internalType": "uint256",
          "name": "tokenId",
          "type": "uint256"
        }
      ],
      "name": "safeTransferFrom",
      "outputs": [],
      "stateMutability": "nonpayable",
      "type": "function"
    },
    {
      "inputs": [
        {
          "internalType": "address",
          "name": "from",
          "type": "address"
        },
        {
          "internalType": "address",
          "name": "to",
          "type": "address"
        },
        {
          "internalType": "uint256",
          "name": "tokenId",
          "type": "uint256"
        },
        {
          "internalType": "bytes",
          "name": "_data",
          "type": "bytes"
        }
      ],
      "name": "safeTransferFrom",
      "outputs": [],
      "stateMutability": "nonpayable",
      "type": "function"
    }
  ],
  "bytecode": "0x60806040523480156200001157600080fd5b50604051620025f1380380620025f1833981810160405260408110156200003757600080fd5b508051602091820151604080518082018252600a815269466f6c6961566972757360b01b818601528151808301909252600382526223262b60e91b9482019490945291929091620000986301ffc9a760e01b6001600160e01b036200021916565b8151620000ad90600690602085019062000635565b508051620000c390600790602084019062000635565b50620000df6380ac58cd60e01b6001600160e01b036200021916565b620000fa635b5e139f60e01b6001600160e01b036200021916565b6200011563780e9d6360e01b6001600160e01b036200021916565b50600090506200012d6001600160e01b036200029e16565b600a80546001600160a01b0319166001600160a01b038316908117909155604051919250906000907f8be0079c531659141344cd1fd0a4f28419497f9722a3daafe3b4186f6b6457e0908290a350600b80546001600160a01b0319166001600160a01b038416179055610100620001a760206001620002a3565b1760081b620001c2602060026001600160e01b03620002a316565b17620001d882826001600160e01b036200030c16565b60405181906001600160a01b038416906000907feb608ef5b82c48c84545bb758ce871d1af1c487f331168a8464f61cc159c5392908290a4505050620006d7565b6001600160e01b0319808216141562000279576040805162461bcd60e51b815260206004820152601c60248201527f4552433136353a20696e76616c696420696e7465726661636520696400000000604482015290519081900360640190fd5b6001600160e01b0319166000908152602081905260409020805460ff19166001179055565b335b90565b6000824442620002bb6001600160e01b036200047216565b85604051602001808581526020018481526020018381526020018281526020019450505050506040516020818303038152906040528051906020012060001c816200030257fe5b0690505b92915050565b6001600160a01b03821662000368576040805162461bcd60e51b815260206004820181905260248201527f4552433732313a206d696e7420746f20746865207a65726f2061646472657373604482015290519081900360640190fd5b6200037c816001600160e01b036200049016565b15620003cf576040805162461bcd60e51b815260206004820152601c60248201527f4552433732313a20746f6b656e20616c7265616479206d696e74656400000000604482015290519081900360640190fd5b620003e6600083836001600160e01b03620004ad16565b6001600160a01b03821660009081526001602090815260409091206200041791839062001616620004b2821b17901c565b506200043581836002620004d060201b62001622179092919060201c565b5060405181906001600160a01b038416906000907fddf252ad1be2c89b69c2b068fc378daa952ba7f163c4a11628f55a4df523b3ef908290a45050565b60006200048b6002620004f960201b6200164f1760201c565b905090565b6000620003068260026200050f60201b6200165a1790919060201c565b505050565b6000620004c983836001600160e01b036200052616565b9392505050565b6000620004f184846001600160a01b0385166001600160e01b036200057e16565b949350505050565b600062000306826001600160e01b036200061916565b6000620004c983836001600160e01b036200061d16565b60006200053d83836001600160e01b036200061d16565b620005755750815460018181018455600084815260208082209093018490558454848252828601909352604090209190915562000306565b50600062000306565b600082815260018401602052604081205480620005e5575050604080518082018252838152602080820184815286546001818101895560008981528481209551600290930290950191825591519082015586548684528188019092529290912055620004c9565b82856000016001830381548110620005f957fe5b9060005260206000209060020201600101819055506000915050620004c9565b5490565b60009081526001919091016020526040902054151590565b828054600181600116156101000203166002900490600052602060002090601f016020900481019282601f106200067857805160ff1916838001178555620006a8565b82800160010185558215620006a8579182015b82811115620006a85782518255916020019190600101906200068b565b50620006b6929150620006ba565b5090565b620002a091905b80821115620006b65760008155600101620006c1565b611f0a80620006e76000396000f3fe608060405234801561001057600080fd5b506004361061018d5760003560e01c80636352211e116100e3578063a22cb4651161008c578063c87b56dd11610066578063c87b56dd146105cd578063e985e9c5146105ea578063f2fde38b146106255761018d565b8063a22cb4651461048c578063b88d4fde146104c7578063c5e2a7db1461059a5761018d565b8063715018a6116100bd578063715018a6146104745780638da5cb5b1461047c57806395d89b41146104845761018d565b80636352211e1461041c5780636c0360eb1461043957806370a08231146104415761018d565b806323b872dd11610145578063392f37e91161011f578063392f37e9146103b457806342842e0e146103bc5780634f6ccce7146103ff5761018d565b806323b872dd146102fd57806324cc9e9f146103405780632f745c591461037b5761018d565b8063081812fc11610176578063081812fc14610262578063095ea7b3146102a857806318160ddd146102e35761018d565b806301ffc9a71461019257806306fdde03146101e5575b600080fd5b6101d1600480360360208110156101a857600080fd5b50357fffffffff0000000000000000000000000000000000000000000000000000000016610658565b604080519115158252519081900360200190f35b6101ed610693565b6040805160208082528351818301528351919283929083019185019080838360005b8381101561022757818101518382015260200161020f565b50505050905090810190601f1680156102545780820380516001836020036101000a031916815260200191505b509250505060405180910390f35b61027f6004803603602081101561027857600080fd5b5035610747565b6040805173ffffffffffffffffffffffffffffffffffffffff9092168252519081900360200190f35b6102e1600480360360408110156102be57600080fd5b5073ffffffffffffffffffffffffffffffffffffffff81351690602001356107d0565b005b6102eb610913565b60408051918252519081900360200190f35b6102e16004803603606081101561031357600080fd5b5073ffffffffffffffffffffffffffffffffffffffff813581169160208101359091169060400135610924565b61035d6004803603602081101561035657600080fd5b5035610adf565b60408051938452602084019290925282820152519081900360600190f35b6102eb6004803603604081101561039157600080fd5b5073ffffffffffffffffffffffffffffffffffffffff8135169060200135610af3565b61027f610b31565b6102e1600480360360608110156103d257600080fd5b5073ffffffffffffffffffffffffffffffffffffffff81358116916020810135909116906040013561090e565b6102eb6004803603602081101561041557600080fd5b5035610b4d565b61027f6004803603602081101561043257600080fd5b5035610b69565b6101ed610b97565b6102eb6004803603602081101561045757600080fd5b503573ffffffffffffffffffffffffffffffffffffffff16610c16565b6102e1610cb2565b61027f610dc9565b6101ed610de5565b6102e1600480360360408110156104a257600080fd5b5073ffffffffffffffffffffffffffffffffffffffff81351690602001351515610e64565b6102e1600480360360808110156104dd57600080fd5b73ffffffffffffffffffffffffffffffffffffffff82358116926020810135909116916040820135919081019060808101606082013564010000000081111561052557600080fd5b82018360208201111561053757600080fd5b8035906020019184600183028401116401000000008311171561055957600080fd5b91908080601f016020809104026020016040519081016040528093929190818152602001838380828437600092019190915250929550610fd5945050505050565b6102e1600480360360208110156105b057600080fd5b503573ffffffffffffffffffffffffffffffffffffffff16610fdb565b6101ed600480360360208110156105e357600080fd5b50356110ca565b6101d16004803603604081101561060057600080fd5b5073ffffffffffffffffffffffffffffffffffffffff81358116916020013516611439565b6102e16004803603602081101561063b57600080fd5b503573ffffffffffffffffffffffffffffffffffffffff16611474565b7fffffffff00000000000000000000000000000000000000000000000000000000811660009081526020819052604090205460ff165b919050565b60068054604080516020601f60027fffffffffffffffffffffffffffffffffffffffffffffffffffffffffffffffff61010060018816150201909516949094049384018190048102820181019092528281526060939092909183018282801561073d5780601f106107125761010080835404028352916020019161073d565b820191906000526020600020905b81548152906001019060200180831161072057829003601f168201915b5050505050905090565b600061075282611666565b6107a7576040517f08c379a000000000000000000000000000000000000000000000000000000000815260040180806020018281038252602c815260200180611e59602c913960400191505060405180910390fd5b5060009081526004602052604090205473ffffffffffffffffffffffffffffffffffffffff1690565b60006107db82610b69565b90508073ffffffffffffffffffffffffffffffffffffffff168373ffffffffffffffffffffffffffffffffffffffff161415610862576040517f08c379a0000000000000000000000000000000000000000000000000000000008152600401808060200182810382526021815260200180611eb46021913960400191505060405180910390fd5b8073ffffffffffffffffffffffffffffffffffffffff16610881611679565b73ffffffffffffffffffffffffffffffffffffffff1614806108af57506108af816108aa611679565b611439565b610904576040517f08c379a0000000000000000000000000000000000000000000000000000000008152600401808060200182810382526038815260200180611dac6038913960400191505060405180910390fd5b61090e838361167d565b505050565b600061091f600261164f565b905090565b61092d83610c16565b60011461099b57604080517f08c379a000000000000000000000000000000000000000000000000000000000815260206004820152601060248201527f4e4f542059455420494e46454354454400000000000000000000000000000000604482015290519081900360640190fd5b6109a482610c16565b15610a1057604080517f08c379a000000000000000000000000000000000000000000000000000000000815260206004820152601060248201527f414c524541445920494e46454354454400000000000000000000000000000000604482015290519081900360640190fd5b80610a19610913565b600190810160081b9250610a2f9060029061171d565b610a5b57600881901c60ff1682179150600882901b9150610a526020600261171d565b82179150610a74565b610a676020600361171d565b90911760081b60ff821617905b610a7e8383611778565b818373ffffffffffffffffffffffffffffffffffffffff168573ffffffffffffffffffffffffffffffffffffffff167feb608ef5b82c48c84545bb758ce871d1af1c487f331168a8464f61cc159c539260405160405180910390a450505050565b601081901c9160ff600883901c8116921690565b73ffffffffffffffffffffffffffffffffffffffff82166000908152600160205260408120610b28908363ffffffff61190d16565b90505b92915050565b600b5473ffffffffffffffffffffffffffffffffffffffff1681565b600080610b6160028463ffffffff61191916565b509392505050565b6000610b2b82604051806060016040528060298152602001611e0e602991396002919063ffffffff61193516565b60098054604080516020601f60027fffffffffffffffffffffffffffffffffffffffffffffffffffffffffffffffff61010060018816150201909516949094049384018190048102820181019092528281526060939092909183018282801561073d5780601f106107125761010080835404028352916020019161073d565b600073ffffffffffffffffffffffffffffffffffffffff8216610c84576040517f08c379a000000000000000000000000000000000000000000000000000000000815260040180806020018281038252602a815260200180611de4602a913960400191505060405180910390fd5b73ffffffffffffffffffffffffffffffffffffffff82166000908152600160205260409020610b2b9061164f565b610cba611679565b73ffffffffffffffffffffffffffffffffffffffff16610cd8610dc9565b73ffffffffffffffffffffffffffffffffffffffff1614610d5a57604080517f08c379a000000000000000000000000000000000000000000000000000000000815260206004820181905260248201527f4f776e61626c653a2063616c6c6572206973206e6f7420746865206f776e6572604482015290519081900360640190fd5b600a5460405160009173ffffffffffffffffffffffffffffffffffffffff16907f8be0079c531659141344cd1fd0a4f28419497f9722a3daafe3b4186f6b6457e0908390a3600a80547fffffffffffffffffffffffff0000000000000000000000000000000000000000169055565b600a5473ffffffffffffffffffffffffffffffffffffffff1690565b60078054604080516020601f60027fffffffffffffffffffffffffffffffffffffffffffffffffffffffffffffffff61010060018816150201909516949094049384018190048102820181019092528281526060939092909183018282801561073d5780601f106107125761010080835404028352916020019161073d565b610e6c611679565b73ffffffffffffffffffffffffffffffffffffffff168273ffffffffffffffffffffffffffffffffffffffff161415610f0657604080517f08c379a000000000000000000000000000000000000000000000000000000000815260206004820152601960248201527f4552433732313a20617070726f766520746f2063616c6c657200000000000000604482015290519081900360640190fd5b8060056000610f13611679565b73ffffffffffffffffffffffffffffffffffffffff90811682526020808301939093526040918201600090812091871680825291909352912080547fffffffffffffffffffffffffffffffffffffffffffffffffffffffffffffff001692151592909217909155610f82611679565b604080518415158152905173ffffffffffffffffffffffffffffffffffffffff92909216917f17307eab39ab6107e8899845ad3d59bd9653f200f220920489ca2b5937696c319181900360200190a35050565b50505050565b610fe3611679565b73ffffffffffffffffffffffffffffffffffffffff16611001610dc9565b73ffffffffffffffffffffffffffffffffffffffff161461108357604080517f08c379a000000000000000000000000000000000000000000000000000000000815260206004820181905260248201527f4f776e61626c653a2063616c6c6572206973206e6f7420746865206f776e6572604482015290519081900360640190fd5b600b80547fffffffffffffffffffffffff00000000000000000000000000000000000000001673ffffffffffffffffffffffffffffffffffffffff92909216919091179055565b60606110d582611666565b61112a576040517f08c379a000000000000000000000000000000000000000000000000000000000815260040180806020018281038252602f815260200180611e85602f913960400191505060405180910390fd5b60008281526008602090815260409182902080548351601f60027fffffffffffffffffffffffffffffffffffffffffffffffffffffffffffffffff6101006001861615020190931692909204918201849004840281018401909452808452606093928301828280156111dd5780601f106111b2576101008083540402835291602001916111dd565b820191906000526020600020905b8154815290600101906020018083116111c057829003601f168201915b5050505050905060606111ee610b97565b90508051600014156112025750905061068e565b81511561131d5780826040516020018083805190602001908083835b6020831061125b57805182527fffffffffffffffffffffffffffffffffffffffffffffffffffffffffffffffe0909201916020918201910161121e565b51815160209384036101000a7fffffffffffffffffffffffffffffffffffffffffffffffffffffffffffffffff018019909216911617905285519190930192850191508083835b602083106112df57805182527fffffffffffffffffffffffffffffffffffffffffffffffffffffffffffffffe090920191602091820191016112a2565b6001836020036101000a038019825116818451168082178552505050505050905001925050506040516020818303038152906040529250505061068e565b8061132785611942565b6040516020018083805190602001908083835b6020831061137757805182527fffffffffffffffffffffffffffffffffffffffffffffffffffffffffffffffe0909201916020918201910161133a565b51815160209384036101000a7fffffffffffffffffffffffffffffffffffffffffffffffffffffffffffffffff018019909216911617905285519190930192850191508083835b602083106113fb57805182527fffffffffffffffffffffffffffffffffffffffffffffffffffffffffffffffe090920191602091820191016113be565b6001836020036101000a0380198251168184511680821785525050505050509050019250505060405160208183030381529060405292505050919050565b73ffffffffffffffffffffffffffffffffffffffff918216600090815260056020908152604080832093909416825291909152205460ff1690565b61147c611679565b73ffffffffffffffffffffffffffffffffffffffff1661149a610dc9565b73ffffffffffffffffffffffffffffffffffffffff161461151c57604080517f08c379a000000000000000000000000000000000000000000000000000000000815260206004820181905260248201527f4f776e61626c653a2063616c6c6572206973206e6f7420746865206f776e6572604482015290519081900360640190fd5b73ffffffffffffffffffffffffffffffffffffffff8116611588576040517f08c379a0000000000000000000000000000000000000000000000000000000008152600401808060200182810382526026815260200180611d866026913960400191505060405180910390fd5b600a5460405173ffffffffffffffffffffffffffffffffffffffff8084169216907f8be0079c531659141344cd1fd0a4f28419497f9722a3daafe3b4186f6b6457e090600090a3600a80547fffffffffffffffffffffffff00000000000000000000000000000000000000001673ffffffffffffffffffffffffffffffffffffffff92909216919091179055565b6000610b288383611a6f565b6000611645848473ffffffffffffffffffffffffffffffffffffffff8516611ab9565b90505b9392505050565b6000610b2b82611b50565b6000610b288383611b54565b6000610b2b60028363ffffffff61165a16565b3390565b600081815260046020526040902080547fffffffffffffffffffffffff00000000000000000000000000000000000000001673ffffffffffffffffffffffffffffffffffffffff841690811790915581906116d782610b69565b73ffffffffffffffffffffffffffffffffffffffff167f8c5be1e5ebec7d5bd14f71427d1e84f3dd0314c0f7b2291e5b200ac8c7c3b92560405160405180910390a45050565b600082444261172a610913565b85604051602001808581526020018481526020018381526020018281526020019450505050506040516020818303038152906040528051906020012060001c8161177057fe5b069392505050565b73ffffffffffffffffffffffffffffffffffffffff82166117fa57604080517f08c379a000000000000000000000000000000000000000000000000000000000815260206004820181905260248201527f4552433732313a206d696e7420746f20746865207a65726f2061646472657373604482015290519081900360640190fd5b61180381611666565b1561186f57604080517f08c379a000000000000000000000000000000000000000000000000000000000815260206004820152601c60248201527f4552433732313a20746f6b656e20616c7265616479206d696e74656400000000604482015290519081900360640190fd5b61187b6000838361090e565b73ffffffffffffffffffffffffffffffffffffffff821660009081526001602052604090206118b0908263ffffffff61161616565b506118c36002828463ffffffff61162216565b50604051819073ffffffffffffffffffffffffffffffffffffffff8416906000907fddf252ad1be2c89b69c2b068fc378daa952ba7f163c4a11628f55a4df523b3ef908290a45050565b6000610b288383611b6c565b60008080806119288686611bea565b9097909650945050505050565b6000611645848484611c7f565b606081611983575060408051808201909152600181527f3000000000000000000000000000000000000000000000000000000000000000602082015261068e565b8160005b811561199b57600101600a82049150611987565b60608167ffffffffffffffff811180156119b457600080fd5b506040519080825280601f01601f1916602001820160405280156119df576020820181803683370190505b5085935090507fffffffffffffffffffffffffffffffffffffffffffffffffffffffffffffffff82015b8315611a6657600a840660300160f81b82828060019003935081518110611a2c57fe5b60200101907effffffffffffffffffffffffffffffffffffffffffffffffffffffffffffff1916908160001a905350600a84049350611a09565b50949350505050565b6000611a7b8383611b54565b611ab157508154600181810184556000848152602080822090930184905584548482528286019093526040902091909155610b2b565b506000610b2b565b600082815260018401602052604081205480611b1e575050604080518082018252838152602080820184815286546001818101895560008981528481209551600290930290950191825591519082015586548684528188019092529290912055611648565b82856000016001830381548110611b3157fe5b9060005260206000209060020201600101819055506000915050611648565b5490565b60009081526001919091016020526040902054151590565b81546000908210611bc8576040517f08c379a0000000000000000000000000000000000000000000000000000000008152600401808060200182810382526022815260200180611d646022913960400191505060405180910390fd5b826000018281548110611bd757fe5b9060005260206000200154905092915050565b815460009081908310611c48576040517f08c379a0000000000000000000000000000000000000000000000000000000008152600401808060200182810382526022815260200180611e376022913960400191505060405180910390fd5b6000846000018481548110611c5957fe5b906000526020600020906002020190508060000154816001015492509250509250929050565b60008281526001840160205260408120548281611d34576040517f08c379a00000000000000000000000000000000000000000000000000000000081526004018080602001828103825283818151815260200191508051906020019080838360005b83811015611cf9578181015183820152602001611ce1565b50505050905090810190601f168015611d265780820380516001836020036101000a031916815260200191505b509250505060405180910390fd5b50846000016001820381548110611d4757fe5b906000526020600020906002020160010154915050939250505056fe456e756d657261626c655365743a20696e646578206f7574206f6620626f756e64734f776e61626c653a206e6577206f776e657220697320746865207a65726f20616464726573734552433732313a20617070726f76652063616c6c6572206973206e6f74206f776e6572206e6f7220617070726f76656420666f7220616c6c4552433732313a2062616c616e636520717565727920666f7220746865207a65726f20616464726573734552433732313a206f776e657220717565727920666f72206e6f6e6578697374656e7420746f6b656e456e756d657261626c654d61703a20696e646578206f7574206f6620626f756e64734552433732313a20617070726f76656420717565727920666f72206e6f6e6578697374656e7420746f6b656e4552433732314d657461646174613a2055524920717565727920666f72206e6f6e6578697374656e7420746f6b656e4552433732313a20617070726f76616c20746f2063757272656e74206f776e6572a2646970667358221220650931a3dd384d4521c25a6e8abb88198b8e703e4410dd933409064b56a4ed8a64736f6c63430006080033",
  "source": "pragma solidity ^0.6.8;\n\nimport \"@openzeppelin/contracts/token/ERC721/ERC721.sol\";\nimport \"@openzeppelin/contracts/access/Ownable.sol\";\nimport \"./Metadata.sol\";\n\n/**\n * The FoliaVirus contract does this and that and doesn't stop.\n */\n\ncontract Kudzu is ERC721, Ownable {\n    Metadata public metadata;\n\n    event Infect(address indexed from, address indexed to, uint256 indexed tokenId);\n\n    constructor(Metadata _metadata, address genesis) public ERC721(\"FoliaVirus\", \"FLV\") {\n        metadata = _metadata;\n        uint256 tokenId = 1;\n\n        tokenId = tokenId << 8;\n        tokenId = tokenId | pseudoRNG(32, 1);\n\n        tokenId = tokenId << 8;\n        tokenId = tokenId | pseudoRNG(32, 2);\n        _mint(genesis, tokenId);\n        emit Infect(address(0), genesis, tokenId);\n    }\n    function getPiecesOfTokenID(uint256 tokenId) public pure returns(uint256 id, uint256 eyes, uint256 mouth) {\n        return (tokenId >> 16, (tokenId >> 8 & 0xFF), tokenId & 0xFF);\n    }\n    function updateMetadata(Metadata _metadata) public onlyOwner {\n        metadata = _metadata;\n    }\n    function transferFrom(address from, address to, uint256 tokenId) public virtual override {\n        require(balanceOf(from) == 1, \"NOT YET INFECTED\");\n        require(balanceOf(to) == 0, \"ALREADY INFECTED\");\n        uint256 parentId = tokenId;\n        tokenId = totalSupply() + 1;\n        tokenId = tokenId << 8;\n        if (pseudoRNG(2, 1) == 0) {\n            //inherit eyes\n            tokenId = tokenId | (parentId >> 8 & 0xFF);\n            tokenId = tokenId << 8;\n            tokenId = tokenId | pseudoRNG(32, 2);\n        } else {\n            //inherit mouth\n            tokenId = tokenId | pseudoRNG(32, 3);\n            tokenId = tokenId << 8;\n            tokenId = tokenId | (parentId & 0xFF);\n        }\n        _mint(to, tokenId);\n        emit Infect(from, to, tokenId);\n    }\n    function safeTransferFrom(address from, address to, uint256 tokenId) public virtual override {}\n    function safeTransferFrom(address from, address to, uint256 tokenId, bytes memory _data) public virtual override {}\n    function pseudoRNG(uint modulo, uint nonce) private view returns (uint256) {\n        return uint256(keccak256(abi.encodePacked(block.difficulty, now, totalSupply(), nonce))) % modulo;\n    }\n}\n",
  "sourcePath": "/Users/billy/GitHub/folia-app/kudzu/contracts/Kudzu.sol",
  "compiler": {
    "name": "solc",
    "version": "0.6.8+commit.0bbfe453.Emscripten.clang"
  },
  "schemaVersion": "3.0.20",
  "updatedAt": "2021-04-18T15:25:22.189Z",
  "networkType": "ethereum",
  "devdoc": {
    "methods": {
      "approve(address,uint256)": {
        "details": "See {IERC721-approve}."
      },
      "balanceOf(address)": {
        "details": "See {IERC721-balanceOf}."
      },
      "baseURI()": {
        "details": "Returns the base URI set via {_setBaseURI}. This will be automatically added as a prefix in {tokenURI} to each token's URI, or to the token ID if no specific URI is set for that token ID."
      },
      "getApproved(uint256)": {
        "details": "See {IERC721-getApproved}."
      },
      "isApprovedForAll(address,address)": {
        "details": "See {IERC721-isApprovedForAll}."
      },
      "name()": {
        "details": "See {IERC721Metadata-name}."
      },
      "owner()": {
        "details": "Returns the address of the current owner."
      },
      "ownerOf(uint256)": {
        "details": "See {IERC721-ownerOf}."
      },
      "renounceOwnership()": {
        "details": "Leaves the contract without owner. It will not be possible to call `onlyOwner` functions anymore. Can only be called by the current owner.     * NOTE: Renouncing ownership will leave the contract without an owner, thereby removing any functionality that is only available to the owner."
      },
      "setApprovalForAll(address,bool)": {
        "details": "See {IERC721-setApprovalForAll}."
      },
      "supportsInterface(bytes4)": {
        "details": "See {IERC165-supportsInterface}.     * Time complexity O(1), guaranteed to always use less than 30 000 gas."
      },
      "symbol()": {
        "details": "See {IERC721Metadata-symbol}."
      },
      "tokenByIndex(uint256)": {
        "details": "See {IERC721Enumerable-tokenByIndex}."
      },
      "tokenOfOwnerByIndex(address,uint256)": {
        "details": "See {IERC721Enumerable-tokenOfOwnerByIndex}."
      },
      "tokenURI(uint256)": {
        "details": "See {IERC721Metadata-tokenURI}."
      },
      "totalSupply()": {
        "details": "See {IERC721Enumerable-totalSupply}."
      },
      "transferOwnership(address)": {
        "details": "Transfers ownership of the contract to a new account (`newOwner`). Can only be called by the current owner."
      }
    }
  },
  "userdoc": {
    "methods": {},
    "notice": "The FoliaVirus contract does this and that and doesn't stop."
  }
}