{
  "contractName": "Metadata",
  "abi": [
    {
      "inputs": [
        {
          "internalType": "uint256",
          "name": "_tokenId",
          "type": "uint256"
        }
      ],
      "name": "tokenURI",
      "outputs": [
        {
          "internalType": "string",
          "name": "_infoUrl",
          "type": "string"
        }
      ],
      "stateMutability": "pure",
      "type": "function",
      "constant": true
    },
    {
      "inputs": [
        {
          "internalType": "uint256",
          "name": "x",
          "type": "uint256"
        }
      ],
      "name": "toBytes",
      "outputs": [
        {
          "internalType": "bytes",
          "name": "b",
          "type": "bytes"
        }
      ],
      "stateMutability": "pure",
      "type": "function",
      "constant": true
    }
  ],
  "bytecode": "0x608060405234801561001057600080fd5b50610485806100206000396000f3fe608060405234801561001057600080fd5b50600436106100365760003560e01c8063775a8f5e1461003b578063c87b56dd146100cd575b600080fd5b6100586004803603602081101561005157600080fd5b50356100ea565b6040805160208082528351818301528351919283929083019185019080838360005b8381101561009257818101518382015260200161007a565b50505050905090810190601f1680156100bf5780820380516001836020036101000a031916815260200191505b509250505060405180910390f35b610058600480360360208110156100e357600080fd5b5035610114565b60408051602080825281830190925260609160208201818036833750505060208101929092525090565b60608060405180606001604052806021815260200161042f602191399050606061013d8461016a565b905061016061014b826102ee565b610154846102ee565b9063ffffffff61031316565b925050505b919050565b6060816101ab575060408051808201909152600181527f30000000000000000000000000000000000000000000000000000000000000006020820152610165565b8160005b81156101c357600101600a820491506101af565b60608167ffffffffffffffff811180156101dc57600080fd5b506040519080825280601f01601f191660200182016040528015610207576020820181803683370190505b5090507fffffffffffffffffffffffffffffffffffffffffffffffffffffffffffffffff82015b85156102e5576030600a870601610244816100ea565b601f8151811061025057fe5b016020015183517fffffffffffffffffffffffffffffffffffffffffffffffffffffffffffffffff8401937fff0000000000000000000000000000000000000000000000000000000000000090921691859181106102aa57fe5b60200101907effffffffffffffffffffffffffffffffffffffffffffffffffffffffffffff1916908160001a905350600a870496505061022e565b50949350505050565b6102f6610414565b506040805180820190915281518152602082810190820152919050565b8051825160609182910167ffffffffffffffff8111801561033357600080fd5b506040519080825280601f01601f19166020018201604052801561035e576020820181803683370190505b509050600060208201905061037c818660200151876000015161039a565b845160208501518551610392928401919061039a565b509392505050565b5b602081106103d85781518352602092830192909101907fffffffffffffffffffffffffffffffffffffffffffffffffffffffffffffffe00161039b565b905182516020929092036101000a7fffffffffffffffffffffffffffffffffffffffffffffffffffffffffffffffff0180199091169116179052565b60405180604001604052806000815260200160008152509056fe68747470733a2f2f76697275732e666f6c69612e6170702f6d657461646174612fa2646970667358221220130d1b349ad22e6e27bf675b2af745d2015d950fd45e6f8046bbc7bcba14e5b864736f6c63430006080033",
  "source": "pragma solidity ^0.6.8;\n\n/**\n* Metadata contract is upgradeable and returns metadata about Token\n*/\n\nimport \"./helpers/strings.sol\";\n\ncontract Metadata {\n    using strings for *;\n\n    function tokenURI(uint _tokenId) public pure returns (string memory _infoUrl) {\n        string memory base = \"https://virus.folia.app/metadata/\";\n        string memory id = uint2str(_tokenId);\n        return base.toSlice().concat(id.toSlice());\n    }\n    function uint2str(uint i) internal pure returns (string memory) {\n        if (i == 0) return \"0\";\n        uint j = i;\n        uint length;\n        while (j != 0) {\n            length++;\n            j /= 10;\n        }\n        bytes memory bstr = new bytes(length);\n        uint k = length - 1;\n        while (i != 0) {\n            uint _uint = 48 + i % 10;\n            bstr[k--] = toBytes(_uint)[31];\n            i /= 10;\n        }\n        return string(bstr);\n    }\n    function toBytes(uint256 x) public pure returns (bytes memory b) {\n        b = new bytes(32);\n        assembly { mstore(add(b, 32), x) }\n    }\n}",
  "sourcePath": "/Users/billy/GitHub/folia-app/kudzu/contracts/Metadata.sol",
  "compiler": {
    "name": "solc",
    "version": "0.6.8+commit.0bbfe453.Emscripten.clang"
  },
  "schemaVersion": "3.0.20",
  "updatedAt": "2021-04-18T15:25:22.184Z",
  "networkType": "ethereum",
  "devdoc": {
    "methods": {}
  },
  "userdoc": {
    "methods": {}
  }
}